{
  "_format": "hh-sol-artifact-1",
  "contractName": "ipfsNFT",
  "sourceName": "contracts/ipfsNFT.sol",
  "abi": [
    {
      "inputs": [
        {
          "internalType": "address",
          "name": "vrfCoordinatorV2",
          "type": "address"
        },
        {
          "internalType": "uint64",
          "name": "subscriptionId",
          "type": "uint64"
        },
        {
          "internalType": "bytes32",
          "name": "gasLane",
          "type": "bytes32"
        },
        {
          "internalType": "uint32",
          "name": "callbackGasLimit",
          "type": "uint32"
        },
        {
          "internalType": "string[3]",
          "name": "dogTokenUris",
          "type": "string[3]"
        },
        {
          "internalType": "uint256",
          "name": "mintFee",
          "type": "uint256"
        }
      ],
      "stateMutability": "nonpayable",
      "type": "constructor"
    },
    {
      "inputs": [
        {
          "internalType": "address",
          "name": "have",
          "type": "address"
        },
        {
          "internalType": "address",
          "name": "want",
          "type": "address"
        }
      ],
      "name": "OnlyCoordinatorCanFulfill",
      "type": "error"
    },
    {
      "inputs": [],
      "name": "RangeOutOfBounds",
      "type": "error"
    },
    {
      "inputs": [],
      "name": "needMoreEth",
      "type": "error"
    },
    {
      "inputs": [],
      "name": "transferFailed",
      "type": "error"
    },
    {
      "anonymous": false,
      "inputs": [
        {
          "indexed": true,
          "internalType": "address",
          "name": "owner",
          "type": "address"
        },
        {
          "indexed": true,
          "internalType": "address",
          "name": "approved",
          "type": "address"
        },
        {
          "indexed": true,
          "internalType": "uint256",
          "name": "tokenId",
          "type": "uint256"
        }
      ],
      "name": "Approval",
      "type": "event"
    },
    {
      "anonymous": false,
      "inputs": [
        {
          "indexed": true,
          "internalType": "address",
          "name": "owner",
          "type": "address"
        },
        {
          "indexed": true,
          "internalType": "address",
          "name": "operator",
          "type": "address"
        },
        {
          "indexed": false,
          "internalType": "bool",
          "name": "approved",
          "type": "bool"
        }
      ],
      "name": "ApprovalForAll",
      "type": "event"
    },
    {
      "anonymous": false,
      "inputs": [
        {
          "indexed": true,
          "internalType": "address",
          "name": "previousOwner",
          "type": "address"
        },
        {
          "indexed": true,
          "internalType": "address",
          "name": "newOwner",
          "type": "address"
        }
      ],
      "name": "OwnershipTransferred",
      "type": "event"
    },
    {
      "anonymous": false,
      "inputs": [
        {
          "indexed": true,
          "internalType": "address",
          "name": "from",
          "type": "address"
        },
        {
          "indexed": true,
          "internalType": "address",
          "name": "to",
          "type": "address"
        },
        {
          "indexed": true,
          "internalType": "uint256",
          "name": "tokenId",
          "type": "uint256"
        }
      ],
      "name": "Transfer",
      "type": "event"
    },
    {
      "anonymous": false,
      "inputs": [
        {
          "indexed": false,
          "internalType": "enum ipfsNFT.breed",
          "name": "dogBreed",
          "type": "uint8"
        },
        {
          "indexed": false,
          "internalType": "address",
          "name": "minter",
          "type": "address"
        }
      ],
      "name": "nftMinted",
      "type": "event"
    },
    {
      "anonymous": false,
      "inputs": [
        {
          "indexed": true,
          "internalType": "uint256",
          "name": "requestId",
          "type": "uint256"
        },
        {
          "indexed": false,
          "internalType": "address",
          "name": "requester",
          "type": "address"
        }
      ],
      "name": "nftRequested",
      "type": "event"
    },
    {
      "inputs": [
        {
          "internalType": "address",
          "name": "to",
          "type": "address"
        },
        {
          "internalType": "uint256",
          "name": "tokenId",
          "type": "uint256"
        }
      ],
      "name": "approve",
      "outputs": [],
      "stateMutability": "nonpayable",
      "type": "function"
    },
    {
      "inputs": [
        {
          "internalType": "address",
          "name": "owner",
          "type": "address"
        }
      ],
      "name": "balanceOf",
      "outputs": [
        {
          "internalType": "uint256",
          "name": "",
          "type": "uint256"
        }
      ],
      "stateMutability": "view",
      "type": "function"
    },
    {
      "inputs": [
        {
          "internalType": "uint256",
          "name": "tokenId",
          "type": "uint256"
        }
      ],
      "name": "getApproved",
      "outputs": [
        {
          "internalType": "address",
          "name": "",
          "type": "address"
        }
      ],
      "stateMutability": "view",
      "type": "function"
    },
    {
      "inputs": [
        {
          "internalType": "uint256",
          "name": "moddedRng",
          "type": "uint256"
        }
      ],
      "name": "getBreedFromModdedRng",
      "outputs": [
        {
          "internalType": "enum ipfsNFT.breed",
          "name": "",
          "type": "uint8"
        }
      ],
      "stateMutability": "pure",
      "type": "function"
    },
    {
      "inputs": [],
      "name": "getChanceArray",
      "outputs": [
        {
          "internalType": "uint256[3]",
          "name": "",
          "type": "uint256[3]"
        }
      ],
      "stateMutability": "pure",
      "type": "function"
    },
    {
      "inputs": [
        {
          "internalType": "uint256",
          "name": "index",
          "type": "uint256"
        }
      ],
      "name": "getDogTokenUris",
      "outputs": [
        {
          "internalType": "string",
          "name": "",
          "type": "string"
        }
      ],
      "stateMutability": "view",
      "type": "function"
    },
    {
      "inputs": [],
      "name": "getMintFee",
      "outputs": [
        {
          "internalType": "uint256",
          "name": "",
          "type": "uint256"
        }
      ],
      "stateMutability": "view",
      "type": "function"
    },
    {
      "inputs": [],
      "name": "getTokenCounter",
      "outputs": [
        {
          "internalType": "uint256",
          "name": "",
          "type": "uint256"
        }
      ],
      "stateMutability": "view",
      "type": "function"
    },
    {
      "inputs": [
        {
          "internalType": "address",
          "name": "owner",
          "type": "address"
        },
        {
          "internalType": "address",
          "name": "operator",
          "type": "address"
        }
      ],
      "name": "isApprovedForAll",
      "outputs": [
        {
          "internalType": "bool",
          "name": "",
          "type": "bool"
        }
      ],
      "stateMutability": "view",
      "type": "function"
    },
    {
      "inputs": [],
      "name": "name",
      "outputs": [
        {
          "internalType": "string",
          "name": "",
          "type": "string"
        }
      ],
      "stateMutability": "view",
      "type": "function"
    },
    {
      "inputs": [],
      "name": "owner",
      "outputs": [
        {
          "internalType": "address",
          "name": "",
          "type": "address"
        }
      ],
      "stateMutability": "view",
      "type": "function"
    },
    {
      "inputs": [
        {
          "internalType": "uint256",
          "name": "tokenId",
          "type": "uint256"
        }
      ],
      "name": "ownerOf",
      "outputs": [
        {
          "internalType": "address",
          "name": "",
          "type": "address"
        }
      ],
      "stateMutability": "view",
      "type": "function"
    },
    {
      "inputs": [
        {
          "internalType": "uint256",
          "name": "requestId",
          "type": "uint256"
        },
        {
          "internalType": "uint256[]",
          "name": "randomWords",
          "type": "uint256[]"
        }
      ],
      "name": "rawFulfillRandomWords",
      "outputs": [],
      "stateMutability": "nonpayable",
      "type": "function"
    },
    {
      "inputs": [],
      "name": "renounceOwnership",
      "outputs": [],
      "stateMutability": "nonpayable",
      "type": "function"
    },
    {
      "inputs": [],
      "name": "requestNFT",
      "outputs": [
        {
          "internalType": "uint256",
          "name": "requestId",
          "type": "uint256"
        }
      ],
      "stateMutability": "payable",
      "type": "function"
    },
    {
      "inputs": [
        {
          "internalType": "uint256",
          "name": "",
          "type": "uint256"
        }
      ],
      "name": "s_requestIdToSender",
      "outputs": [
        {
          "internalType": "address",
          "name": "",
          "type": "address"
        }
      ],
      "stateMutability": "view",
      "type": "function"
    },
    {
      "inputs": [],
      "name": "s_tokenCounter",
      "outputs": [
        {
          "internalType": "uint256",
          "name": "",
          "type": "uint256"
        }
      ],
      "stateMutability": "view",
      "type": "function"
    },
    {
      "inputs": [
        {
          "internalType": "address",
          "name": "from",
          "type": "address"
        },
        {
          "internalType": "address",
          "name": "to",
          "type": "address"
        },
        {
          "internalType": "uint256",
          "name": "tokenId",
          "type": "uint256"
        }
      ],
      "name": "safeTransferFrom",
      "outputs": [],
      "stateMutability": "nonpayable",
      "type": "function"
    },
    {
      "inputs": [
        {
          "internalType": "address",
          "name": "from",
          "type": "address"
        },
        {
          "internalType": "address",
          "name": "to",
          "type": "address"
        },
        {
          "internalType": "uint256",
          "name": "tokenId",
          "type": "uint256"
        },
        {
          "internalType": "bytes",
          "name": "data",
          "type": "bytes"
        }
      ],
      "name": "safeTransferFrom",
      "outputs": [],
      "stateMutability": "nonpayable",
      "type": "function"
    },
    {
      "inputs": [
        {
          "internalType": "address",
          "name": "operator",
          "type": "address"
        },
        {
          "internalType": "bool",
          "name": "approved",
          "type": "bool"
        }
      ],
      "name": "setApprovalForAll",
      "outputs": [],
      "stateMutability": "nonpayable",
      "type": "function"
    },
    {
      "inputs": [
        {
          "internalType": "bytes4",
          "name": "interfaceId",
          "type": "bytes4"
        }
      ],
      "name": "supportsInterface",
      "outputs": [
        {
          "internalType": "bool",
          "name": "",
          "type": "bool"
        }
      ],
      "stateMutability": "view",
      "type": "function"
    },
    {
      "inputs": [],
      "name": "symbol",
      "outputs": [
        {
          "internalType": "string",
          "name": "",
          "type": "string"
        }
      ],
      "stateMutability": "view",
      "type": "function"
    },
    {
      "inputs": [
        {
          "internalType": "uint256",
          "name": "tokenId",
          "type": "uint256"
        }
      ],
      "name": "tokenURI",
      "outputs": [
        {
          "internalType": "string",
          "name": "",
          "type": "string"
        }
      ],
      "stateMutability": "view",
      "type": "function"
    },
    {
      "inputs": [
        {
          "internalType": "address",
          "name": "from",
          "type": "address"
        },
        {
          "internalType": "address",
          "name": "to",
          "type": "address"
        },
        {
          "internalType": "uint256",
          "name": "tokenId",
          "type": "uint256"
        }
      ],
      "name": "transferFrom",
      "outputs": [],
      "stateMutability": "nonpayable",
      "type": "function"
    },
    {
      "inputs": [
        {
          "internalType": "address",
          "name": "newOwner",
          "type": "address"
        }
      ],
      "name": "transferOwnership",
      "outputs": [],
      "stateMutability": "nonpayable",
      "type": "function"
    },
    {
      "inputs": [],
      "name": "withdraw",
      "outputs": [],
      "stateMutability": "nonpayable",
      "type": "function"
    }
  ],
  "bytecode": "0x6101406040523480156200001257600080fd5b50604051620042eb380380620042eb83398181016040528101906200003891906200080b565b6040518060400160405280600f81526020017f52616e646f6d2049504653204e465400000000000000000000000000000000008152506040518060400160405280600381526020017f52494e0000000000000000000000000000000000000000000000000000000000815250878073ffffffffffffffffffffffffffffffffffffffff1660808173ffffffffffffffffffffffffffffffffffffffff1660601b81525050508160009080519060200190620000f59291906200029e565b5080600190805190602001906200010e9291906200029e565b5050506200013162000125620001d060201b60201c565b620001d860201b60201c565b8573ffffffffffffffffffffffffffffffffffffffff1660a08173ffffffffffffffffffffffffffffffffffffffff1660601b815250508467ffffffffffffffff1660c08167ffffffffffffffff1660c01b815250508360e081815250508263ffffffff166101008163ffffffff1660e01b8152505081600a906003620001ba9291906200032f565b508061012081815250505050505050506200092b565b600033905090565b6000600760009054906101000a900473ffffffffffffffffffffffffffffffffffffffff16905081600760006101000a81548173ffffffffffffffffffffffffffffffffffffffff021916908373ffffffffffffffffffffffffffffffffffffffff1602179055508173ffffffffffffffffffffffffffffffffffffffff168173ffffffffffffffffffffffffffffffffffffffff167f8be0079c531659141344cd1fd0a4f28419497f9722a3daafe3b4186f6b6457e060405160405180910390a35050565b828054620002ac90620008f5565b90600052602060002090601f016020900481019282620002d057600085556200031c565b82601f10620002eb57805160ff19168380011785556200031c565b828001600101855582156200031c579182015b828111156200031b578251825591602001919060010190620002fe565b5b5090506200032b919062000396565b5090565b82805482825590600052602060002090810192821562000383579160200282015b8281111562000382578251829080519060200190620003719291906200029e565b509160200191906001019062000350565b5b509050620003929190620003b5565b5090565b5b80821115620003b157600081600090555060010162000397565b5090565b5b80821115620003d95760008181620003cf9190620003dd565b50600101620003b6565b5090565b508054620003eb90620008f5565b6000825580601f10620003ff575062000420565b601f0160209004906000526020600020908101906200041f919062000396565b5b50565b6000604051905090565b600080fd5b600080fd5b600073ffffffffffffffffffffffffffffffffffffffff82169050919050565b6000620004648262000437565b9050919050565b620004768162000457565b81146200048257600080fd5b50565b60008151905062000496816200046b565b92915050565b600067ffffffffffffffff82169050919050565b620004bb816200049c565b8114620004c757600080fd5b50565b600081519050620004db81620004b0565b92915050565b6000819050919050565b620004f681620004e1565b81146200050257600080fd5b50565b6000815190506200051681620004eb565b92915050565b600063ffffffff82169050919050565b62000537816200051c565b81146200054357600080fd5b50565b60008151905062000557816200052c565b92915050565b600080fd5b6000601f19601f8301169050919050565b7f4e487b7100000000000000000000000000000000000000000000000000000000600052604160045260246000fd5b620005ad8262000562565b810181811067ffffffffffffffff82111715620005cf57620005ce62000573565b5b80604052505050565b6000620005e462000423565b9050620005f28282620005a2565b919050565b600067ffffffffffffffff82111562000615576200061462000573565b5b602082029050919050565b600080fd5b600080fd5b600067ffffffffffffffff82111562000648576200064762000573565b5b620006538262000562565b9050602081019050919050565b60005b838110156200068057808201518184015260208101905062000663565b8381111562000690576000848401525b50505050565b6000620006ad620006a7846200062a565b620005d8565b905082815260208101848484011115620006cc57620006cb62000625565b5b620006d984828562000660565b509392505050565b600082601f830112620006f957620006f86200055d565b5b81516200070b84826020860162000696565b91505092915050565b60006200072b6200072584620005f7565b620005d8565b9050806020840283018581111562000748576200074762000620565b5b835b818110156200079657805167ffffffffffffffff8111156200077157620007706200055d565b5b808601620007808982620006e1565b855260208501945050506020810190506200074a565b5050509392505050565b600082601f830112620007b857620007b76200055d565b5b6003620007c784828562000714565b91505092915050565b6000819050919050565b620007e581620007d0565b8114620007f157600080fd5b50565b6000815190506200080581620007da565b92915050565b60008060008060008060c087890312156200082b576200082a6200042d565b5b60006200083b89828a0162000485565b96505060206200084e89828a01620004ca565b95505060406200086189828a0162000505565b94505060606200087489828a0162000546565b935050608087015167ffffffffffffffff81111562000898576200089762000432565b5b620008a689828a01620007a0565b92505060a0620008b989828a01620007f4565b9150509295509295509295565b7f4e487b7100000000000000000000000000000000000000000000000000000000600052602260045260246000fd5b600060028204905060018216806200090e57607f821691505b60208210811415620009255762000924620008c6565b5b50919050565b60805160601c60a05160601c60c05160c01c60e0516101005160e01c610120516139566200099560003960008181610d760152610d9e01526000610e7801526000610e3401526000610e5501526000610df801526000818161091d015261097101526139566000f3fe6080604052600436106101815760003560e01c806370a08231116100d1578063a22cb4651161008a578063b88d4fde11610064578063b88d4fde14610577578063c87b56dd146105a0578063e985e9c5146105dd578063f2fde38b1461061a57610181565b8063a22cb465146104d4578063a36f573b146104fd578063a51cccf31461053a57610181565b806370a08231146103e1578063715018a61461041e5780637a5caab3146104355780637abd25d1146104605780638da5cb5b1461047e57806395d89b41146104a957610181565b806323b872dd1161013e57806342842e0e1161011857806342842e0e146103255780635dacf5f41461034e5780636352211e146103795780636e02007d146103b657610181565b806323b872dd146102a85780633af25975146102d15780633ccfd60b1461030e57610181565b806301ffc9a71461018657806306fdde03146101c3578063081812fc146101ee578063095ea7b31461022b5780630b21a83b146102545780631fe543e31461027f575b600080fd5b34801561019257600080fd5b506101ad60048036038101906101a89190612504565b610643565b6040516101ba919061254c565b60405180910390f35b3480156101cf57600080fd5b506101d8610725565b6040516101e59190612600565b60405180910390f35b3480156101fa57600080fd5b5061021560048036038101906102109190612658565b6107b7565b60405161022291906126c6565b60405180910390f35b34801561023757600080fd5b50610252600480360381019061024d919061270d565b6107fd565b005b34801561026057600080fd5b50610269610915565b604051610276919061275c565b60405180910390f35b34801561028b57600080fd5b506102a660048036038101906102a191906128bf565b61091b565b005b3480156102b457600080fd5b506102cf60048036038101906102ca919061291b565b6109db565b005b3480156102dd57600080fd5b506102f860048036038101906102f39190612658565b610a3b565b6040516103059190612600565b60405180910390f35b34801561031a57600080fd5b50610323610aeb565b005b34801561033157600080fd5b5061034c6004803603810190610347919061291b565b610b9f565b005b34801561035a57600080fd5b50610363610bbf565b6040516103709190612a19565b60405180910390f35b34801561038557600080fd5b506103a0600480360381019061039b9190612658565b610bea565b6040516103ad91906126c6565b60405180910390f35b3480156103c257600080fd5b506103cb610c9c565b6040516103d8919061275c565b60405180910390f35b3480156103ed57600080fd5b5061040860048036038101906104039190612a34565b610ca6565b604051610415919061275c565b60405180910390f35b34801561042a57600080fd5b50610433610d5e565b005b34801561044157600080fd5b5061044a610d72565b604051610457919061275c565b60405180910390f35b610468610d9a565b604051610475919061275c565b60405180910390f35b34801561048a57600080fd5b50610493610f9a565b6040516104a091906126c6565b60405180910390f35b3480156104b557600080fd5b506104be610fc4565b6040516104cb9190612600565b60405180910390f35b3480156104e057600080fd5b506104fb60048036038101906104f69190612a8d565b611056565b005b34801561050957600080fd5b50610524600480360381019061051f9190612658565b61106c565b60405161053191906126c6565b60405180910390f35b34801561054657600080fd5b50610561600480360381019061055c9190612658565b61109f565b60405161056e9190612b44565b60405180910390f35b34801561058357600080fd5b5061059e60048036038101906105999190612c14565b61116b565b005b3480156105ac57600080fd5b506105c760048036038101906105c29190612658565b6111cd565b6040516105d49190612600565b60405180910390f35b3480156105e957600080fd5b5061060460048036038101906105ff9190612c97565b6112e0565b604051610611919061254c565b60405180910390f35b34801561062657600080fd5b50610641600480360381019061063c9190612a34565b611374565b005b60007f80ac58cd000000000000000000000000000000000000000000000000000000007bffffffffffffffffffffffffffffffffffffffffffffffffffffffff1916827bffffffffffffffffffffffffffffffffffffffffffffffffffffffff1916148061070e57507f5b5e139f000000000000000000000000000000000000000000000000000000007bffffffffffffffffffffffffffffffffffffffffffffffffffffffff1916827bffffffffffffffffffffffffffffffffffffffffffffffffffffffff1916145b8061071e575061071d826113f8565b5b9050919050565b60606000805461073490612d06565b80601f016020809104026020016040519081016040528092919081815260200182805461076090612d06565b80156107ad5780601f10610782576101008083540402835291602001916107ad565b820191906000526020600020905b81548152906001019060200180831161079057829003601f168201915b5050505050905090565b60006107c282611462565b6004600083815260200190815260200160002060009054906101000a900473ffffffffffffffffffffffffffffffffffffffff169050919050565b600061080882610bea565b90508073ffffffffffffffffffffffffffffffffffffffff168373ffffffffffffffffffffffffffffffffffffffff161415610879576040517f08c379a000000000000000000000000000000000000000000000000000000000815260040161087090612daa565b60405180910390fd5b8073ffffffffffffffffffffffffffffffffffffffff166108986114ad565b73ffffffffffffffffffffffffffffffffffffffff1614806108c757506108c6816108c16114ad565b6112e0565b5b610906576040517f08c379a00000000000000000000000000000000000000000000000000000000081526004016108fd90612e3c565b60405180910390fd5b61091083836114b5565b505050565b60095481565b7f000000000000000000000000000000000000000000000000000000000000000073ffffffffffffffffffffffffffffffffffffffff163373ffffffffffffffffffffffffffffffffffffffff16146109cd57337f00000000000000000000000000000000000000000000000000000000000000006040517f1cf993f40000000000000000000000000000000000000000000000000000000081526004016109c4929190612e5c565b60405180910390fd5b6109d7828261156e565b5050565b6109ec6109e66114ad565b826116f3565b610a2b576040517f08c379a0000000000000000000000000000000000000000000000000000000008152600401610a2290612ef7565b60405180910390fd5b610a36838383611788565b505050565b6060600a8281548110610a5157610a50612f17565b5b906000526020600020018054610a6690612d06565b80601f0160208091040260200160405190810160405280929190818152602001828054610a9290612d06565b8015610adf5780601f10610ab457610100808354040283529160200191610adf565b820191906000526020600020905b815481529060010190602001808311610ac257829003601f168201915b50505050509050919050565b610af36119ef565b600047905060003373ffffffffffffffffffffffffffffffffffffffff1682604051610b1e90612f77565b60006040518083038185875af1925050503d8060008114610b5b576040519150601f19603f3d011682016040523d82523d6000602084013e610b60565b606091505b5050905080610b9b576040517fe465903e00000000000000000000000000000000000000000000000000000000815260040160405180910390fd5b5050565b610bba8383836040518060200160405280600081525061116b565b505050565b610bc76123d3565b6040518060600160405280600a8152602001601e81526020016064815250905090565b6000806002600084815260200190815260200160002060009054906101000a900473ffffffffffffffffffffffffffffffffffffffff169050600073ffffffffffffffffffffffffffffffffffffffff168173ffffffffffffffffffffffffffffffffffffffff161415610c93576040517f08c379a0000000000000000000000000000000000000000000000000000000008152600401610c8a90612fd8565b60405180910390fd5b80915050919050565b6000600954905090565b60008073ffffffffffffffffffffffffffffffffffffffff168273ffffffffffffffffffffffffffffffffffffffff161415610d17576040517f08c379a0000000000000000000000000000000000000000000000000000000008152600401610d0e9061306a565b60405180910390fd5b600360008373ffffffffffffffffffffffffffffffffffffffff1673ffffffffffffffffffffffffffffffffffffffff168152602001908152602001600020549050919050565b610d666119ef565b610d706000611a6d565b565b60007f0000000000000000000000000000000000000000000000000000000000000000905090565b60007f0000000000000000000000000000000000000000000000000000000000000000341015610df6576040517fc1335e1a00000000000000000000000000000000000000000000000000000000815260040160405180910390fd5b7f000000000000000000000000000000000000000000000000000000000000000073ffffffffffffffffffffffffffffffffffffffff16635d3b1d307f00000000000000000000000000000000000000000000000000000000000000007f000000000000000000000000000000000000000000000000000000000000000060037f000000000000000000000000000000000000000000000000000000000000000060016040518663ffffffff1660e01b8152600401610eb9959493929190613102565b602060405180830381600087803b158015610ed357600080fd5b505af1158015610ee7573d6000803e3d6000fd5b505050506040513d601f19601f82011682018060405250810190610f0b919061316a565b9050336008600083815260200190815260200160002060006101000a81548173ffffffffffffffffffffffffffffffffffffffff021916908373ffffffffffffffffffffffffffffffffffffffff160217905550807fb77d492ca16c0fc7e1a62736b735a9b86bf20f020e61e4be967843f7b36d8b0133604051610f8f91906126c6565b60405180910390a290565b6000600760009054906101000a900473ffffffffffffffffffffffffffffffffffffffff16905090565b606060018054610fd390612d06565b80601f0160208091040260200160405190810160405280929190818152602001828054610fff90612d06565b801561104c5780601f106110215761010080835404028352916020019161104c565b820191906000526020600020905b81548152906001019060200180831161102f57829003601f168201915b5050505050905090565b6110686110616114ad565b8383611b33565b5050565b60086020528060005260406000206000915054906101000a900473ffffffffffffffffffffffffffffffffffffffff1681565b6000806000905060006110b0610bbf565b905060005b6003811015611133578285101580156110e457508181600381106110dc576110db612f17565b5b602002015185105b15611106578060028111156110fc576110fb612acd565b5b9350505050611166565b81816003811061111957611118612f17565b5b60200201519250808061112b906131c6565b9150506110b5565b506040517f0655dc2500000000000000000000000000000000000000000000000000000000815260040160405180910390fd5b919050565b61117c6111766114ad565b836116f3565b6111bb576040517f08c379a00000000000000000000000000000000000000000000000000000000081526004016111b290612ef7565b60405180910390fd5b6111c784848484611ca0565b50505050565b60606111d882611462565b60006006600084815260200190815260200160002080546111f890612d06565b80601f016020809104026020016040519081016040528092919081815260200182805461122490612d06565b80156112715780601f1061124657610100808354040283529160200191611271565b820191906000526020600020905b81548152906001019060200180831161125457829003601f168201915b505050505090506000611282611cfc565b90506000815114156112985781925050506112db565b6000825111156112cd5780826040516020016112b592919061324b565b604051602081830303815290604052925050506112db565b6112d684611d13565b925050505b919050565b6000600560008473ffffffffffffffffffffffffffffffffffffffff1673ffffffffffffffffffffffffffffffffffffffff16815260200190815260200160002060008373ffffffffffffffffffffffffffffffffffffffff1673ffffffffffffffffffffffffffffffffffffffff16815260200190815260200160002060009054906101000a900460ff16905092915050565b61137c6119ef565b600073ffffffffffffffffffffffffffffffffffffffff168173ffffffffffffffffffffffffffffffffffffffff1614156113ec576040517f08c379a00000000000000000000000000000000000000000000000000000000081526004016113e3906132e1565b60405180910390fd5b6113f581611a6d565b50565b60007f01ffc9a7000000000000000000000000000000000000000000000000000000007bffffffffffffffffffffffffffffffffffffffffffffffffffffffff1916827bffffffffffffffffffffffffffffffffffffffffffffffffffffffff1916149050919050565b61146b81611d7b565b6114aa576040517f08c379a00000000000000000000000000000000000000000000000000000000081526004016114a190612fd8565b60405180910390fd5b50565b600033905090565b816004600083815260200190815260200160002060006101000a81548173ffffffffffffffffffffffffffffffffffffffff021916908373ffffffffffffffffffffffffffffffffffffffff160217905550808273ffffffffffffffffffffffffffffffffffffffff1661152883610bea565b73ffffffffffffffffffffffffffffffffffffffff167f8c5be1e5ebec7d5bd14f71427d1e84f3dd0314c0f7b2291e5b200ac8c7c3b92560405160405180910390a45050565b60006008600084815260200190815260200160002060009054906101000a900473ffffffffffffffffffffffffffffffffffffffff1690506000600954905060006064846000815181106115c5576115c4612f17565b5b60200260200101516115d79190613330565b905060006115e48261109f565b90506115f08484611de7565b6116b283600a83600281111561160957611608612acd565b5b8154811061161a57611619612f17565b5b90600052602060002001805461162f90612d06565b80601f016020809104026020016040519081016040528092919081815260200182805461165b90612d06565b80156116a85780601f1061167d576101008083540402835291602001916116a8565b820191906000526020600020905b81548152906001019060200180831161168b57829003601f168201915b5050505050611e05565b7f1aa35c020b397b1bb7bb41edc11d97e964a4fc744a734afce0d451b3bab97cc681856040516116e3929190613361565b60405180910390a1505050505050565b6000806116ff83610bea565b90508073ffffffffffffffffffffffffffffffffffffffff168473ffffffffffffffffffffffffffffffffffffffff161480611741575061174081856112e0565b5b8061177f57508373ffffffffffffffffffffffffffffffffffffffff16611767846107b7565b73ffffffffffffffffffffffffffffffffffffffff16145b91505092915050565b8273ffffffffffffffffffffffffffffffffffffffff166117a882610bea565b73ffffffffffffffffffffffffffffffffffffffff16146117fe576040517f08c379a00000000000000000000000000000000000000000000000000000000081526004016117f5906133fc565b60405180910390fd5b600073ffffffffffffffffffffffffffffffffffffffff168273ffffffffffffffffffffffffffffffffffffffff16141561186e576040517f08c379a00000000000000000000000000000000000000000000000000000000081526004016118659061348e565b60405180910390fd5b611879838383611e79565b6118846000826114b5565b6001600360008573ffffffffffffffffffffffffffffffffffffffff1673ffffffffffffffffffffffffffffffffffffffff16815260200190815260200160002060008282546118d491906134ae565b925050819055506001600360008473ffffffffffffffffffffffffffffffffffffffff1673ffffffffffffffffffffffffffffffffffffffff168152602001908152602001600020600082825461192b91906134e2565b92505081905550816002600083815260200190815260200160002060006101000a81548173ffffffffffffffffffffffffffffffffffffffff021916908373ffffffffffffffffffffffffffffffffffffffff160217905550808273ffffffffffffffffffffffffffffffffffffffff168473ffffffffffffffffffffffffffffffffffffffff167fddf252ad1be2c89b69c2b068fc378daa952ba7f163c4a11628f55a4df523b3ef60405160405180910390a46119ea838383611e7e565b505050565b6119f76114ad565b73ffffffffffffffffffffffffffffffffffffffff16611a15610f9a565b73ffffffffffffffffffffffffffffffffffffffff1614611a6b576040517f08c379a0000000000000000000000000000000000000000000000000000000008152600401611a6290613584565b60405180910390fd5b565b6000600760009054906101000a900473ffffffffffffffffffffffffffffffffffffffff16905081600760006101000a81548173ffffffffffffffffffffffffffffffffffffffff021916908373ffffffffffffffffffffffffffffffffffffffff1602179055508173ffffffffffffffffffffffffffffffffffffffff168173ffffffffffffffffffffffffffffffffffffffff167f8be0079c531659141344cd1fd0a4f28419497f9722a3daafe3b4186f6b6457e060405160405180910390a35050565b8173ffffffffffffffffffffffffffffffffffffffff168373ffffffffffffffffffffffffffffffffffffffff161415611ba2576040517f08c379a0000000000000000000000000000000000000000000000000000000008152600401611b99906135f0565b60405180910390fd5b80600560008573ffffffffffffffffffffffffffffffffffffffff1673ffffffffffffffffffffffffffffffffffffffff16815260200190815260200160002060008473ffffffffffffffffffffffffffffffffffffffff1673ffffffffffffffffffffffffffffffffffffffff16815260200190815260200160002060006101000a81548160ff0219169083151502179055508173ffffffffffffffffffffffffffffffffffffffff168373ffffffffffffffffffffffffffffffffffffffff167f17307eab39ab6107e8899845ad3d59bd9653f200f220920489ca2b5937696c3183604051611c93919061254c565b60405180910390a3505050565b611cab848484611788565b611cb784848484611e83565b611cf6576040517f08c379a0000000000000000000000000000000000000000000000000000000008152600401611ced90613682565b60405180910390fd5b50505050565b606060405180602001604052806000815250905090565b6060611d1e82611462565b6000611d28611cfc565b90506000815111611d485760405180602001604052806000815250611d73565b80611d528461201a565b604051602001611d6392919061324b565b6040516020818303038152906040525b915050919050565b60008073ffffffffffffffffffffffffffffffffffffffff166002600084815260200190815260200160002060009054906101000a900473ffffffffffffffffffffffffffffffffffffffff1673ffffffffffffffffffffffffffffffffffffffff1614159050919050565b611e0182826040518060200160405280600081525061217b565b5050565b611e0e82611d7b565b611e4d576040517f08c379a0000000000000000000000000000000000000000000000000000000008152600401611e4490613714565b60405180910390fd5b80600660008481526020019081526020016000209080519060200190611e749291906123f5565b505050565b505050565b505050565b6000611ea48473ffffffffffffffffffffffffffffffffffffffff166121d6565b1561200d578373ffffffffffffffffffffffffffffffffffffffff1663150b7a02611ecd6114ad565b8786866040518563ffffffff1660e01b8152600401611eef9493929190613789565b602060405180830381600087803b158015611f0957600080fd5b505af1925050508015611f3a57506040513d601f19601f82011682018060405250810190611f3791906137ea565b60015b611fbd573d8060008114611f6a576040519150601f19603f3d011682016040523d82523d6000602084013e611f6f565b606091505b50600081511415611fb5576040517f08c379a0000000000000000000000000000000000000000000000000000000008152600401611fac90613682565b60405180910390fd5b805181602001fd5b63150b7a0260e01b7bffffffffffffffffffffffffffffffffffffffffffffffffffffffff1916817bffffffffffffffffffffffffffffffffffffffffffffffffffffffff191614915050612012565b600190505b949350505050565b60606000821415612062576040518060400160405280600181526020017f30000000000000000000000000000000000000000000000000000000000000008152509050612176565b600082905060005b6000821461209457808061207d906131c6565b915050600a8261208d9190613817565b915061206a565b60008167ffffffffffffffff8111156120b0576120af61277c565b5b6040519080825280601f01601f1916602001820160405280156120e25781602001600182028036833780820191505090505b5090505b6000851461216f576001826120fb91906134ae565b9150600a8561210a9190613330565b603061211691906134e2565b60f81b81838151811061212c5761212b612f17565b5b60200101907effffffffffffffffffffffffffffffffffffffffffffffffffffffffffffff1916908160001a905350600a856121689190613817565b94506120e6565b8093505050505b919050565b61218583836121f9565b6121926000848484611e83565b6121d1576040517f08c379a00000000000000000000000000000000000000000000000000000000081526004016121c890613682565b60405180910390fd5b505050565b6000808273ffffffffffffffffffffffffffffffffffffffff163b119050919050565b600073ffffffffffffffffffffffffffffffffffffffff168273ffffffffffffffffffffffffffffffffffffffff161415612269576040517f08c379a000000000000000000000000000000000000000000000000000000000815260040161226090613894565b60405180910390fd5b61227281611d7b565b156122b2576040517f08c379a00000000000000000000000000000000000000000000000000000000081526004016122a990613900565b60405180910390fd5b6122be60008383611e79565b6001600360008473ffffffffffffffffffffffffffffffffffffffff1673ffffffffffffffffffffffffffffffffffffffff168152602001908152602001600020600082825461230e91906134e2565b92505081905550816002600083815260200190815260200160002060006101000a81548173ffffffffffffffffffffffffffffffffffffffff021916908373ffffffffffffffffffffffffffffffffffffffff160217905550808273ffffffffffffffffffffffffffffffffffffffff16600073ffffffffffffffffffffffffffffffffffffffff167fddf252ad1be2c89b69c2b068fc378daa952ba7f163c4a11628f55a4df523b3ef60405160405180910390a46123cf60008383611e7e565b5050565b6040518060600160405280600390602082028036833780820191505090505090565b82805461240190612d06565b90600052602060002090601f016020900481019282612423576000855561246a565b82601f1061243c57805160ff191683800117855561246a565b8280016001018555821561246a579182015b8281111561246957825182559160200191906001019061244e565b5b509050612477919061247b565b5090565b5b8082111561249457600081600090555060010161247c565b5090565b6000604051905090565b600080fd5b600080fd5b60007fffffffff0000000000000000000000000000000000000000000000000000000082169050919050565b6124e1816124ac565b81146124ec57600080fd5b50565b6000813590506124fe816124d8565b92915050565b60006020828403121561251a576125196124a2565b5b6000612528848285016124ef565b91505092915050565b60008115159050919050565b61254681612531565b82525050565b6000602082019050612561600083018461253d565b92915050565b600081519050919050565b600082825260208201905092915050565b60005b838110156125a1578082015181840152602081019050612586565b838111156125b0576000848401525b50505050565b6000601f19601f8301169050919050565b60006125d282612567565b6125dc8185612572565b93506125ec818560208601612583565b6125f5816125b6565b840191505092915050565b6000602082019050818103600083015261261a81846125c7565b905092915050565b6000819050919050565b61263581612622565b811461264057600080fd5b50565b6000813590506126528161262c565b92915050565b60006020828403121561266e5761266d6124a2565b5b600061267c84828501612643565b91505092915050565b600073ffffffffffffffffffffffffffffffffffffffff82169050919050565b60006126b082612685565b9050919050565b6126c0816126a5565b82525050565b60006020820190506126db60008301846126b7565b92915050565b6126ea816126a5565b81146126f557600080fd5b50565b600081359050612707816126e1565b92915050565b60008060408385031215612724576127236124a2565b5b6000612732858286016126f8565b925050602061274385828601612643565b9150509250929050565b61275681612622565b82525050565b6000602082019050612771600083018461274d565b92915050565b600080fd5b7f4e487b7100000000000000000000000000000000000000000000000000000000600052604160045260246000fd5b6127b4826125b6565b810181811067ffffffffffffffff821117156127d3576127d261277c565b5b80604052505050565b60006127e6612498565b90506127f282826127ab565b919050565b600067ffffffffffffffff8211156128125761281161277c565b5b602082029050602081019050919050565b600080fd5b600061283b612836846127f7565b6127dc565b9050808382526020820190506020840283018581111561285e5761285d612823565b5b835b8181101561288757806128738882612643565b845260208401935050602081019050612860565b5050509392505050565b600082601f8301126128a6576128a5612777565b5b81356128b6848260208601612828565b91505092915050565b600080604083850312156128d6576128d56124a2565b5b60006128e485828601612643565b925050602083013567ffffffffffffffff811115612905576129046124a7565b5b61291185828601612891565b9150509250929050565b600080600060608486031215612934576129336124a2565b5b6000612942868287016126f8565b9350506020612953868287016126f8565b925050604061296486828701612643565b9150509250925092565b600060039050919050565b600081905092915050565b6000819050919050565b61299781612622565b82525050565b60006129a9838361298e565b60208301905092915050565b6000602082019050919050565b6129cb8161296e565b6129d58184612979565b92506129e082612984565b8060005b83811015612a115781516129f8878261299d565b9650612a03836129b5565b9250506001810190506129e4565b505050505050565b6000606082019050612a2e60008301846129c2565b92915050565b600060208284031215612a4a57612a496124a2565b5b6000612a58848285016126f8565b91505092915050565b612a6a81612531565b8114612a7557600080fd5b50565b600081359050612a8781612a61565b92915050565b60008060408385031215612aa457612aa36124a2565b5b6000612ab2858286016126f8565b9250506020612ac385828601612a78565b9150509250929050565b7f4e487b7100000000000000000000000000000000000000000000000000000000600052602160045260246000fd5b60038110612b0d57612b0c612acd565b5b50565b6000819050612b1e82612afc565b919050565b6000612b2e82612b10565b9050919050565b612b3e81612b23565b82525050565b6000602082019050612b596000830184612b35565b92915050565b600080fd5b600067ffffffffffffffff821115612b7f57612b7e61277c565b5b612b88826125b6565b9050602081019050919050565b82818337600083830152505050565b6000612bb7612bb284612b64565b6127dc565b905082815260208101848484011115612bd357612bd2612b5f565b5b612bde848285612b95565b509392505050565b600082601f830112612bfb57612bfa612777565b5b8135612c0b848260208601612ba4565b91505092915050565b60008060008060808587031215612c2e57612c2d6124a2565b5b6000612c3c878288016126f8565b9450506020612c4d878288016126f8565b9350506040612c5e87828801612643565b925050606085013567ffffffffffffffff811115612c7f57612c7e6124a7565b5b612c8b87828801612be6565b91505092959194509250565b60008060408385031215612cae57612cad6124a2565b5b6000612cbc858286016126f8565b9250506020612ccd858286016126f8565b9150509250929050565b7f4e487b7100000000000000000000000000000000000000000000000000000000600052602260045260246000fd5b60006002820490506001821680612d1e57607f821691505b60208210811415612d3257612d31612cd7565b5b50919050565b7f4552433732313a20617070726f76616c20746f2063757272656e74206f776e6560008201527f7200000000000000000000000000000000000000000000000000000000000000602082015250565b6000612d94602183612572565b9150612d9f82612d38565b604082019050919050565b60006020820190508181036000830152612dc381612d87565b9050919050565b7f4552433732313a20617070726f76652063616c6c6572206973206e6f7420746f60008201527f6b656e206f776e6572206e6f7220617070726f76656420666f7220616c6c0000602082015250565b6000612e26603e83612572565b9150612e3182612dca565b604082019050919050565b60006020820190508181036000830152612e5581612e19565b9050919050565b6000604082019050612e7160008301856126b7565b612e7e60208301846126b7565b9392505050565b7f4552433732313a2063616c6c6572206973206e6f7420746f6b656e206f776e6560008201527f72206e6f7220617070726f766564000000000000000000000000000000000000602082015250565b6000612ee1602e83612572565b9150612eec82612e85565b604082019050919050565b60006020820190508181036000830152612f1081612ed4565b9050919050565b7f4e487b7100000000000000000000000000000000000000000000000000000000600052603260045260246000fd5b600081905092915050565b50565b6000612f61600083612f46565b9150612f6c82612f51565b600082019050919050565b6000612f8282612f54565b9150819050919050565b7f4552433732313a20696e76616c696420746f6b656e2049440000000000000000600082015250565b6000612fc2601883612572565b9150612fcd82612f8c565b602082019050919050565b60006020820190508181036000830152612ff181612fb5565b9050919050565b7f4552433732313a2061646472657373207a65726f206973206e6f74206120766160008201527f6c6964206f776e65720000000000000000000000000000000000000000000000602082015250565b6000613054602983612572565b915061305f82612ff8565b604082019050919050565b6000602082019050818103600083015261308381613047565b9050919050565b6000819050919050565b61309d8161308a565b82525050565b600067ffffffffffffffff82169050919050565b6130c0816130a3565b82525050565b600061ffff82169050919050565b6130dd816130c6565b82525050565b600063ffffffff82169050919050565b6130fc816130e3565b82525050565b600060a0820190506131176000830188613094565b61312460208301876130b7565b61313160408301866130d4565b61313e60608301856130f3565b61314b60808301846130f3565b9695505050505050565b6000815190506131648161262c565b92915050565b6000602082840312156131805761317f6124a2565b5b600061318e84828501613155565b91505092915050565b7f4e487b7100000000000000000000000000000000000000000000000000000000600052601160045260246000fd5b60006131d182612622565b91507fffffffffffffffffffffffffffffffffffffffffffffffffffffffffffffffff82141561320457613203613197565b5b600182019050919050565b600081905092915050565b600061322582612567565b61322f818561320f565b935061323f818560208601612583565b80840191505092915050565b6000613257828561321a565b9150613263828461321a565b91508190509392505050565b7f4f776e61626c653a206e6577206f776e657220697320746865207a65726f206160008201527f6464726573730000000000000000000000000000000000000000000000000000602082015250565b60006132cb602683612572565b91506132d68261326f565b604082019050919050565b600060208201905081810360008301526132fa816132be565b9050919050565b7f4e487b7100000000000000000000000000000000000000000000000000000000600052601260045260246000fd5b600061333b82612622565b915061334683612622565b92508261335657613355613301565b5b828206905092915050565b60006040820190506133766000830185612b35565b61338360208301846126b7565b9392505050565b7f4552433732313a207472616e736665722066726f6d20696e636f72726563742060008201527f6f776e6572000000000000000000000000000000000000000000000000000000602082015250565b60006133e6602583612572565b91506133f18261338a565b604082019050919050565b60006020820190508181036000830152613415816133d9565b9050919050565b7f4552433732313a207472616e7366657220746f20746865207a65726f2061646460008201527f7265737300000000000000000000000000000000000000000000000000000000602082015250565b6000613478602483612572565b91506134838261341c565b604082019050919050565b600060208201905081810360008301526134a78161346b565b9050919050565b60006134b982612622565b91506134c483612622565b9250828210156134d7576134d6613197565b5b828203905092915050565b60006134ed82612622565b91506134f883612622565b9250827fffffffffffffffffffffffffffffffffffffffffffffffffffffffffffffffff0382111561352d5761352c613197565b5b828201905092915050565b7f4f776e61626c653a2063616c6c6572206973206e6f7420746865206f776e6572600082015250565b600061356e602083612572565b915061357982613538565b602082019050919050565b6000602082019050818103600083015261359d81613561565b9050919050565b7f4552433732313a20617070726f766520746f2063616c6c657200000000000000600082015250565b60006135da601983612572565b91506135e5826135a4565b602082019050919050565b60006020820190508181036000830152613609816135cd565b9050919050565b7f4552433732313a207472616e7366657220746f206e6f6e20455243373231526560008201527f63656976657220696d706c656d656e7465720000000000000000000000000000602082015250565b600061366c603283612572565b915061367782613610565b604082019050919050565b6000602082019050818103600083015261369b8161365f565b9050919050565b7f45524337323155524953746f726167653a2055524920736574206f66206e6f6e60008201527f6578697374656e7420746f6b656e000000000000000000000000000000000000602082015250565b60006136fe602e83612572565b9150613709826136a2565b604082019050919050565b6000602082019050818103600083015261372d816136f1565b9050919050565b600081519050919050565b600082825260208201905092915050565b600061375b82613734565b613765818561373f565b9350613775818560208601612583565b61377e816125b6565b840191505092915050565b600060808201905061379e60008301876126b7565b6137ab60208301866126b7565b6137b8604083018561274d565b81810360608301526137ca8184613750565b905095945050505050565b6000815190506137e4816124d8565b92915050565b600060208284031215613800576137ff6124a2565b5b600061380e848285016137d5565b91505092915050565b600061382282612622565b915061382d83612622565b92508261383d5761383c613301565b5b828204905092915050565b7f4552433732313a206d696e7420746f20746865207a65726f2061646472657373600082015250565b600061387e602083612572565b915061388982613848565b602082019050919050565b600060208201905081810360008301526138ad81613871565b9050919050565b7f4552433732313a20746f6b656e20616c7265616479206d696e74656400000000600082015250565b60006138ea601c83612572565b91506138f5826138b4565b602082019050919050565b60006020820190508181036000830152613919816138dd565b905091905056fea2646970667358221220db4df05377fc1f95e5996d3f37f7d5a203b3ef472f12b18342c541f5dbf2ffa764736f6c63430008080033",
  "linkReferences": {},
  "deployedLinkReferences": {}
}